:100000000C9462000C948A000C948A000C948A0070
:100010000C948A000C948A000C948A000C948A0038
:100020000C948A000C948A000C948A000C94E704C7
:100030000C948A000C948A000C948A000C948A0018
:100040000C9445040C948A000C94B5040C948F0411
:100050000C948A000C948A000C948A000C948A00F8
:100060000C948A000C948A000000000024002700F1
:100070002A0000000000250028002B0000000000DE
:1000800023002600290004040404040404040202DA
:100090000202020203030303030301020408102007
:1000A0004080010204081020010204081020000012
:1000B0000008000201000003040700000000000027
:1000C0000000C30811241FBECFEFD8E0DEBFCDBFB4
:1000D00011E0A0E0B1E0E0EFF1E102C005900D9287
:1000E000A231B107D9F721E0A2E1B1E001C01D9230
:1000F000AE3CB207E1F710E0C2E6D0E004C02197C1
:10010000FE010E94F008C136D107C9F70E9402051E
:100110000C94F6080C940000833081F028F48130B0
:1001200099F08230A9F008958730A9F08830C9F09D
:100130008430B1F4809180008F7D03C08091800075
:100140008F7780938000089584B58F7784BD08955C
:1001500084B58F7DFBCF8091B0008F778093B00006
:1001600008958091B0008F7DF9CFCF93DF93282F32
:1001700030E0F901E255FF4F8491F901E656FF4F57
:10018000D491F901EA57FF4FC491CC23A1F081111A
:100190000E948C00EC2FF0E0EE0FFF1FE458FF4FA1
:1001A000A591B491EC91ED2381E090E009F480E019
:1001B000DF91CF91089580E090E0FACF1F93CF9325
:1001C000DF93282F30E0F901E255FF4F8491F901C8
:1001D000E656FF4FD491F901EA57FF4FC491CC2363
:1001E000A9F0162F81110E948C00EC2FF0E0EE0F89
:1001F000FF1FEE58FF4FA591B4918FB7F894EC9183
:10020000111108C0D095DE23DC938FBFDF91CF9111
:100210001F910895DE2BF8CF6F927F928F929F925D
:10022000AF92BF92CF92DF92EF92FF920F931F9304
:10023000CF93DF93CDB7DEB760970FB6F894DEBFEC
:100240000FBECDBF3C01F22E142FD62E60E0882DBC
:100250000E94DE0060E08A2D0E94DE0060E08C2DAE
:100260000E94DE0060E08E2D0E94DE0060E0802FA4
:100270000E94DE0060E08F2D0E94DE0060E0812F92
:100280000E94DE0060E08D2D0E94DE00611471048A
:1002900079F561E0882D0E94DE0061E08A2D0E94E0
:1002A000DE0061E08C2D0E94DE0061E08E2D0E9458
:1002B000DE0061E0802F0E94DE0061E08F2D0E9451
:1002C000DE0085E068167104B1F561E0882D0E94BA
:1002D000DE0061E08F2D0E94DE0061E08C2D0E9427
:1002E000DE0061E08E2D0E94DE0061E0812F66C09D
:1002F00081E06816710439F461E08A2D0E94DE0005
:1003000061E08C2DDCCF82E06816710479F561E044
:10031000882D0E94DE0061E08A2D0E94DE0061E0EF
:10032000812F0E94DE0061E0802F0E94DE0061E0EC
:100330008E2D0E94DE0086E06816710481F561E072
:10034000882D0E94DE0061E08F2D0E94DE0061E0BA
:100350008C2D0E94DE0061E08E2D0E94DE0061E0A7
:10036000812F0E94DE0061E0802F28C083E06816A4
:10037000710409F089C061E0882D0E94DE0061E00F
:100380008A2D0E94DE0061E0812F0E94DE0061E084
:100390008C2D0E94DE0061E08E2D0E94DE0087E041
:1003A0006816710409F091C061E0882D0E94DE009A
:1003B00061E08A2D0E94DE0061E08C2D0E94DE004B
:1003C000882D0E94B50061E0892B09F060E0882D3E
:1003D0000E94DE008A2D0E94B50061E0892B09F0A1
:1003E00060E08A2D0E94DE008C2D0E94B50061E045
:1003F000892B09F060E08C2D0E94DE008E2D0E947A
:10040000B50061E0892B09F060E08E2D0E94DE00CE
:10041000802F0E94B50061E0892B09F060E0802FF9
:100420000E94DE008F2D0E94B50061E0892B09F04B
:1004300060E08F2D0E94DE00812F0E94B50061E0F8
:10044000892B09F060E0812F0E94DE008D2D0E9433
:10045000B50061E0892B09F060E08D2D60960FB644
:10046000F894DEBF0FBECDBFDF91CF911F910F91EA
:10047000FF90EF90DF90CF90BF90AF909F908F90C4
:100480007F906F900C94DE0084E06816710409F090
:1004900018CF61E08F2D0E94DE0061E0812F0E9465
:1004A000DE0061E08A2D0E94DE0061E08C2D0E945A
:1004B000DE0089E06816710409F082CF61E0882DC2
:1004C0000E94DE0061E08A2D02CF88E06816710488
:1004D00081F761E0882D0E94DE0061E08A2D31CF36
:1004E000CF93DF9390E0FC01E656FF4F24918A57AB
:1004F0009F4FFC0184918823D1F090E0880F991FD1
:10050000FC01E859FF4FA591B491FC01EE58FF4F53
:10051000C591D49161110EC09FB7F8948C91E22FD0
:10052000E0958E238C932881E223E8839FBFDF919F
:10053000CF9108958FB7F894EC91E22BEC938FBF95
:10054000F6CF3FB7F8948091B6019091B701A09192
:10055000B801B091B90126B5A89B05C02F3F19F08D
:100560000196A11DB11D3FBFBA2FA92F982F882733
:10057000BC01CD01620F711D811D911D42E0660F0E
:10058000771F881F991F4A95D1F708958F929F92E0
:10059000AF92BF92CF92DF92EF92FF924B015C013C
:1005A0000E94A1026B017C010E94A1026C197D09CD
:1005B0008E099F09683E734081059105A8F321E0EB
:1005C000821A9108A108B10888EEC80E83E0D81EEF
:1005D000E11CF11C81149104A104B10429F7FF90DE
:1005E000EF90DF90CF90BF90AF909F908F90089545
:1005F000CF93DF931092CD011092CC011092CB01DA
:100600001092CA0161E08FE00E94DE0061E080E1AB
:100610000E94DE0061E081E10E94DE0061E082E193
:100620000E94DE00CAEBD1E061E088810E94DE001A
:1006300061E08A810E94DE0061E08C810E94DE0020
:1006400061E08E810E94DE0061E088850E94DE000C
:1006500061E08A850E94DE0060E08C850E94DE00F9
:1006600068EE73E080E090E0DF91CF910C94C602D9
:10067000AF92BF92CF92DF92EF92FF920F931F93B0
:10068000CF93DF936C017B018B01040F151FEB01EE
:100690005E01AE18BF08C017D10759F06991D601A5
:1006A000ED91FC910190F081E02DC6010995892B17
:1006B00079F7C501DF91CF911F910F91FF90EF90D6
:1006C000DF90CF90BF90AF900895FC01538D448D83
:1006D000252F30E0842F90E0821B930B541710F0ED
:1006E000CF96089501970895FC01918D828D9817FA
:1006F00061F0A28DAE0FBF2FB11D5D968C91928DD2
:100700009F5F9F73928F90E008958FEF9FEF089502
:10071000FC01918D828D981731F0828DE80FF11DCB
:10072000858D90E008958FEF9FEF0895FC01918DE6
:10073000228D892F90E0805C9F4F821B91098F73DF
:100740009927089582E191E00E94960321E0892B88
:1007500009F420E0822F089580E090E0892B29F0B1
:100760000E94A20381110C9400000895FC01A48D45
:10077000A80FB92FB11DA35ABF4F2C91848D90E0C3
:1007800001968F739927848FA689B7892C93A089A6
:10079000B1898C91837080648C93938D848D981330
:1007A00006C00288F389E02D80818F7D80830895C3
:1007B000EF92FF920F931F93CF93DF93EC0181E0B1
:1007C000888F9B8D8C8D98131AC0E889F989808158
:1007D00085FF15C09FB7F894EE89FF896083E8898B
:1007E000F98980818370806480839FBF81E090E07D
:1007F000DF91CF911F910F91FF90EF900895F62E0A
:100800000B8D10E00F5F1F4F0F731127E02E8C8DA3
:100810008E110CC00FB607FCFACFE889F9898081E8
:1008200085FFF5CFCE010E94B603F1CFEB8DEC0F23
:10083000FD2FF11DE35AFF4FF0829FB7F8940B8F05
:10084000EA89FB8980818062CFCFCF93DF93EC016F
:10085000888D8823B9F0AA89BB89E889F9898C91A8
:1008600085FD03C0808186FD0DC00FB607FCF7CF64
:100870008C9185FFF2CF808185FFEDCFCE010E9464
:10088000B603E9CFDF91CF9108951F920F920FB673
:100890000F9211242F933F938F939F93AF93BF9306
:1008A0008091B2019091B301A091B401B091B501D2
:1008B0003091B10123E0230F2D3758F50196A11D8A
:1008C000B11D2093B1018093B2019093B301A09325
:1008D000B401B093B5018091B6019091B701A09198
:1008E000B801B091B9010196A11DB11D8093B60167
:1008F0009093B701A093B801B093B901BF91AF91A4
:100900009F918F913F912F910F900FBE0F901F904D
:10091000189526E8230F0296A11DB11DD2CF1F9274
:100920000F920FB60F9211242F933F934F935F9323
:100930006F937F938F939F93AF93BF93EF93FF93A7
:1009400082E191E00E94B603FF91EF91BF91AF91D8
:100950009F918F917F916F915F914F913F912F91D7
:100960000F900FBE0F901F9018951F920F920FB609
:100970000F9211242F938F939F93EF93FF93E09106
:100980002201F09123018081E0912801F091290159
:1009900082FD1BC0908180912B018F5F8F7320910E
:1009A0002C01821741F0E0912B01F0E0EE5EFE4F4A
:1009B000958F80932B01FF91EF919F918F912F91B4
:1009C0000F900FBE0F901F9018958081F4CF1F924B
:1009D0000F920FB60F9211248F939F931092850060
:1009E000109284008091AF019091B0010196909394
:1009F000B0018093AF019F918F910F900FBE0F9028
:100A00001F901895789484B5826084BD84B5816008
:100A100084BD85B5826085BD85B5816085BD8091C9
:100A20006E00816080936E00109281008091810041
:100A30008260809381008091810081608093810039
:100A4000809180008160809380008091B1008460FB
:100A50008093B1008091B00081608093B00080915C
:100A60007A00846080937A0080917A00826080931B
:100A70007A0080917A00816080937A0080917A0078
:100A8000806880937A001092C100E0912201F09179
:100A9000230192E09083E0911E01F0911F011082EA
:100AA000E0912001F09121018FEC808310922A01C6
:100AB000E0912601F091270186E08083E0912401F6
:100AC000F0912501808180618083E0912401F09183
:100AD0002501808188608083E0912401F0912501C7
:100AE000808180688083E0912401F09125018081DC
:100AF0008F7D80831092800080918100846080933C
:100B00008100809181008D7F8093810080918100A0
:100B10008E7F80938100109285001092840024E2E1
:100B200034EF309389002093880090936F0061E048
:100B30008FE00E94700261E080E10E94700261E03B
:100B400081E10E94700261E082E10E94700260E037
:100B500082E00E94700287E090E09093BB01809356
:100B6000BA0185E090E09093BD018093BC0189E0DB
:100B700090E09093BF018093BE018BE090E0909352
:100B8000C1018093C0018CE090E09093C3018093F9
:100B9000C20186E090E09093C5018093C40188E093
:100BA00090E09093C7018093C6018AE090E0909313
:100BB000C9018093C80161E087E00E94700261E092
:100BC0008091BC010E94700261E08091BE010E9490
:100BD000700261E08091C0010E94700261E080912A
:100BE000C2010E94700261E08091C4010E94700203
:100BF00061E08091C6010E94700261E08091C801AD
:100C00000E9470020E94F80280E0682E80E0782E38
:100C100082E00E94B5000197E9F4C0E002C0C5304F
:100C200099F082E00E94B500D091CA015090CB01AA
:100C3000019709F099C2D23009F036C183E08515D9
:100C40000CF032C10E94F8026AEF70E080E090E0A0
:100C50000E94C60261E08FE00E94DE00C091CD01DB
:100C60008090BA019090BB01A090BC01B090BD01F2
:100C7000C090BE01D090BF01E090C001F090C101D2
:100C80000091C2011091C3012091C4013091C501AE
:100C90004091C6015091C7016091C8017091C9018E
:100CA0008C2F0C2E000C990B0E940C0160E08AE046
:100CB0000E94DE0065E070E080E090E00E94C602E5
:100CC00060E08FE00E94DE0061E080E10E94DE00D3
:100CD0004090CC018090BA019090BB01A090BC01E3
:100CE000B090BD01C090BE01D090BF01E090C001A6
:100CF000F090C1010091C2011091C3012091C40183
:100D00003091C5014091C6015091C7016091C80161
:100D10007091C901842D042C000C990B0E940C01C8
:100D200060E08AE00E94DE0065E070E080E090E034
:100D30000E94C60260E080E10E94DE0061E081E185
:100D40000E94DE005090CB018090BA019090BB01D0
:100D5000A090BC01B090BD01C090BE01D090BF0179
:100D6000E090C001F090C1010091C2011091C30157
:100D70002091C4013091C5014091C6015091C70135
:100D80006091C8017091C901852D052C000C990B4B
:100D90000E940C0160E08AE00E94DE0065E070E0E5
:100DA00080E090E00E94C60260E081E10E94DE00E7
:100DB00061E082E10E94DE00D091CA018090BA0118
:100DC0009090BB01A090BC01B090BD01C090BE014D
:100DD000D090BF01E090C001F090C1010091C2012C
:100DE0001091C3012091C4013091C5014091C60109
:100DF0005091C7016091C8017091C9018D2F0D2ECE
:100E0000000C990B0E940C0160E08AE00E94DE0059
:100E100065E070E080E090E00E94C60260E082E160
:100E20000E94DE008091AF019091B001CC9781F5D6
:100E3000CF5FC093CD01CA302CF043944092CC01D7
:100E40001092CD018091CC0186302CF053945092B9
:100E5000CB011092CC018091CB018A302CF0DF5F66
:100E6000D093CA011092CB018091CA01823061F403
:100E70008091CB01843041F41092CA011092CB01D1
:100E80001092CD011092CC011092B0011092AF01DE
:100E90006114710409F4BCCE0E94A203882309F4F2
:100EA000B7CE0E940000B4CE6AEF70E080E090E020
:100EB0000E94C602CF5FC23009F4AEC008F054C031
:100EC000C13009F0ACCE60E080E10E94DE0060E05D
:100ED00081E10E94DE0060E082E10E94DE0061E0CC
:100EE0008FE00E94DE00C091CD018090BA01909009
:100EF000BB01A090BC01B090BD01C090BE01D090DC
:100F0000BF01E090C001F090C1010091C2011091B9
:100F1000C3012091C4013091C5014091C601509197
:100F2000C7016091C8017091C9018C2F0C2E000C73
:100F3000990B0E940C0183E00E94B500019761F4B7
:100F4000CF5FCA300CF065C0C093CD016AEF70E08E
:100F500080E090E00E94C6026AE070E080E090E0ED
:100F60000E94C602C1E05DCEC33009F4A8C0C430FF
:100F700009F055CE60E080E10E94DE0060E081E192
:100F80000E94DE0061E082E10E94DE0060E08FE00E
:100F90000E94DE008090BA019090BB01A090BC013D
:100FA000B090BD01C090BE01D090BF01E090C001E3
:100FB000F090C1010091C2011091C3012091C401C0
:100FC0003091C5014091C6015091C7016091C8019F
:100FD0007091C9018D2F0D2E000C990B0E940C01F0
:100FE00083E00E94B500019761F4DF5FD3300CF01D
:100FF000B8C0D093CA016AEF70E080E090E00E9430
:10100000C6026AE070E080E090E00E94C602C4E0A0
:1010100008CE1092CD019ACF61E080E10E94DE00FF
:1010200060E081E10E94DE0060E082E10E94DE007B
:1010300060E08FE00E94DE00C091CC018090BA0198
:101040009090BB01A090BC01B090BD01C090BE01CA
:10105000D090BF01E090C001F090C1010091C201A9
:101060001091C3012091C4013091C5014091C60186
:101070005091C7016091C8017091C9018C2F0C2E4D
:10108000000C990B0E940C0183E00E94B5000197AF
:1010900059F4CF5FC63084F4C093CC016AEF70E09E
:1010A00080E090E00E94C6026AE070E080E090E09C
:1010B0000E94C602C2E0B5CD1092CC01EFCF60E035
:1010C00080E10E94DE0061E081E10E94DE0060E0DC
:1010D00082E10E94DE0060E08FE00E94DE008090EE
:1010E000BA019090BB01A090BC01B090BD01C0902E
:1010F000BE01D090BF01E090C001F090C10100910D
:10110000C2011091C3012091C4013091C5014091E9
:10111000C6015091C7016091C8017091C901852D28
:10112000052C000C990B0E940C0183E00E94B50075
:10113000019761F481E0850D8A3084F48093CB01BE
:101140006AEF70E080E090E00E94C6026AE070E022
:1011500080E090E00E94C602C3E063CD1092CB0114
:10116000EFCF1092CA0147CFC23009F455CF24F413
:10117000C13009F4A8CE55CDC33009F4A0CFC43096
:1011800009F4F8CE4ECDE2E1F1E01382128288EE4E
:1011900093E0A0E0B0E084839583A683B78384E0E6
:1011A00091E09183808385EC90E09587848784EC3F
:1011B00090E09787868780EC90E0918B808B81EC24
:1011C00090E0938B828B82EC90E0958B848B86EC05
:1011D00090E0978B868B118E128E138E148E08954D
:1011E000EE0FFF1F0590F491E02D0994F894FFCFC6
:1011F00000000000D8033803650325049603740338
:02120000880361
:00000001FF
